{
  "_format": "hh-sol-artifact-1",
  "contractName": "Vester",
  "sourceName": "contracts/Vester.sol",
  "abi": [
    {
      "inputs": [
        {
          "internalType": "string",
          "name": "name",
          "type": "string"
        },
        {
          "internalType": "string",
          "name": "symbol",
          "type": "string"
        },
        {
          "internalType": "address",
          "name": "_owner",
          "type": "address"
        }
      ],
      "stateMutability": "nonpayable",
      "type": "constructor"
    },
    {
      "anonymous": false,
      "inputs": [
        {
          "indexed": true,
          "internalType": "address",
          "name": "owner",
          "type": "address"
        },
        {
          "indexed": true,
          "internalType": "address",
          "name": "approved",
          "type": "address"
        },
        {
          "indexed": true,
          "internalType": "uint256",
          "name": "tokenId",
          "type": "uint256"
        }
      ],
      "name": "Approval",
      "type": "event"
    },
    {
      "anonymous": false,
      "inputs": [
        {
          "indexed": true,
          "internalType": "address",
          "name": "owner",
          "type": "address"
        },
        {
          "indexed": true,
          "internalType": "address",
          "name": "operator",
          "type": "address"
        },
        {
          "indexed": false,
          "internalType": "bool",
          "name": "approved",
          "type": "bool"
        }
      ],
      "name": "ApprovalForAll",
      "type": "event"
    },
    {
      "anonymous": false,
      "inputs": [
        {
          "indexed": true,
          "internalType": "uint256",
          "name": "tokenId",
          "type": "uint256"
        }
      ],
      "name": "GrantCreated",
      "type": "event"
    },
    {
      "anonymous": false,
      "inputs": [
        {
          "indexed": true,
          "internalType": "uint256",
          "name": "tokenId",
          "type": "uint256"
        }
      ],
      "name": "GrantDeleted",
      "type": "event"
    },
    {
      "anonymous": false,
      "inputs": [
        {
          "indexed": true,
          "internalType": "uint256",
          "name": "tokenId",
          "type": "uint256"
        },
        {
          "indexed": true,
          "internalType": "address",
          "name": "tokenAddress",
          "type": "address"
        },
        {
          "indexed": false,
          "internalType": "uint64",
          "name": "startTimestamp",
          "type": "uint64"
        },
        {
          "indexed": false,
          "internalType": "uint64",
          "name": "cliffTimestamp",
          "type": "uint64"
        },
        {
          "indexed": false,
          "internalType": "uint128",
          "name": "vestAmount",
          "type": "uint128"
        },
        {
          "indexed": false,
          "internalType": "uint128",
          "name": "totalAmount",
          "type": "uint128"
        },
        {
          "indexed": false,
          "internalType": "uint128",
          "name": "amountRedeemed",
          "type": "uint128"
        },
        {
          "indexed": false,
          "internalType": "uint32",
          "name": "vestInterval",
          "type": "uint32"
        }
      ],
      "name": "GrantUpdated",
      "type": "event"
    },
    {
      "anonymous": false,
      "inputs": [
        {
          "indexed": true,
          "internalType": "address",
          "name": "newOwner",
          "type": "address"
        }
      ],
      "name": "OwnerNomination",
      "type": "event"
    },
    {
      "anonymous": false,
      "inputs": [
        {
          "indexed": true,
          "internalType": "address",
          "name": "oldOwner",
          "type": "address"
        },
        {
          "indexed": true,
          "internalType": "address",
          "name": "newOwner",
          "type": "address"
        }
      ],
      "name": "OwnerUpdate",
      "type": "event"
    },
    {
      "anonymous": false,
      "inputs": [
        {
          "indexed": true,
          "internalType": "uint256",
          "name": "tokenId",
          "type": "uint256"
        },
        {
          "indexed": true,
          "internalType": "address",
          "name": "redeemerAddress",
          "type": "address"
        },
        {
          "indexed": false,
          "internalType": "uint128",
          "name": "amount",
          "type": "uint128"
        }
      ],
      "name": "Redemption",
      "type": "event"
    },
    {
      "anonymous": false,
      "inputs": [
        {
          "indexed": true,
          "internalType": "address",
          "name": "from",
          "type": "address"
        },
        {
          "indexed": true,
          "internalType": "address",
          "name": "to",
          "type": "address"
        },
        {
          "indexed": true,
          "internalType": "uint256",
          "name": "tokenId",
          "type": "uint256"
        }
      ],
      "name": "Transfer",
      "type": "event"
    },
    {
      "anonymous": false,
      "inputs": [
        {
          "indexed": true,
          "internalType": "address",
          "name": "withdrawerAddress",
          "type": "address"
        },
        {
          "indexed": true,
          "internalType": "address",
          "name": "withdrawalTokenAddress",
          "type": "address"
        },
        {
          "indexed": false,
          "internalType": "uint256",
          "name": "amount",
          "type": "uint256"
        }
      ],
      "name": "Withdrawal",
      "type": "event"
    },
    {
      "inputs": [],
      "name": "acceptOwnership",
      "outputs": [],
      "stateMutability": "nonpayable",
      "type": "function"
    },
    {
      "inputs": [
        {
          "internalType": "uint256",
          "name": "tokenId",
          "type": "uint256"
        }
      ],
      "name": "amountVested",
      "outputs": [
        {
          "internalType": "uint128",
          "name": "",
          "type": "uint128"
        }
      ],
      "stateMutability": "view",
      "type": "function"
    },
    {
      "inputs": [
        {
          "internalType": "address",
          "name": "to",
          "type": "address"
        },
        {
          "internalType": "uint256",
          "name": "tokenId",
          "type": "uint256"
        }
      ],
      "name": "approve",
      "outputs": [],
      "stateMutability": "nonpayable",
      "type": "function"
    },
    {
      "inputs": [
        {
          "internalType": "uint256",
          "name": "tokenId",
          "type": "uint256"
        }
      ],
      "name": "availableForRedemption",
      "outputs": [
        {
          "internalType": "uint128",
          "name": "",
          "type": "uint128"
        }
      ],
      "stateMutability": "view",
      "type": "function"
    },
    {
      "inputs": [
        {
          "internalType": "address",
          "name": "owner",
          "type": "address"
        }
      ],
      "name": "balanceOf",
      "outputs": [
        {
          "internalType": "uint256",
          "name": "",
          "type": "uint256"
        }
      ],
      "stateMutability": "view",
      "type": "function"
    },
    {
      "inputs": [
        {
          "internalType": "uint256",
          "name": "tokenId",
          "type": "uint256"
        }
      ],
      "name": "burn",
      "outputs": [],
      "stateMutability": "nonpayable",
      "type": "function"
    },
    {
      "inputs": [
        {
          "internalType": "uint256",
          "name": "tokenId",
          "type": "uint256"
        }
      ],
      "name": "getApproved",
      "outputs": [
        {
          "internalType": "address",
          "name": "",
          "type": "address"
        }
      ],
      "stateMutability": "view",
      "type": "function"
    },
    {
      "inputs": [
        {
          "internalType": "uint256",
          "name": "",
          "type": "uint256"
        }
      ],
      "name": "grants",
      "outputs": [
        {
          "internalType": "uint128",
          "name": "vestAmount",
          "type": "uint128"
        },
        {
          "internalType": "uint128",
          "name": "totalAmount",
          "type": "uint128"
        },
        {
          "internalType": "uint128",
          "name": "amountRedeemed",
          "type": "uint128"
        },
        {
          "internalType": "uint64",
          "name": "startTimestamp",
          "type": "uint64"
        },
        {
          "internalType": "uint64",
          "name": "cliffTimestamp",
          "type": "uint64"
        },
        {
          "internalType": "uint32",
          "name": "vestInterval",
          "type": "uint32"
        },
        {
          "internalType": "address",
          "name": "tokenAddress",
          "type": "address"
        }
      ],
      "stateMutability": "view",
      "type": "function"
    },
    {
      "inputs": [
        {
          "internalType": "address",
          "name": "owner",
          "type": "address"
        },
        {
          "internalType": "address",
          "name": "operator",
          "type": "address"
        }
      ],
      "name": "isApprovedForAll",
      "outputs": [
        {
          "internalType": "bool",
          "name": "",
          "type": "bool"
        }
      ],
      "stateMutability": "view",
      "type": "function"
    },
    {
      "inputs": [
        {
          "internalType": "address",
          "name": "granteeAddress",
          "type": "address"
        },
        {
          "internalType": "address",
          "name": "tokenAddress",
          "type": "address"
        },
        {
          "internalType": "uint64",
          "name": "startTimestamp",
          "type": "uint64"
        },
        {
          "internalType": "uint64",
          "name": "cliffTimestamp",
          "type": "uint64"
        },
        {
          "internalType": "uint128",
          "name": "vestAmount",
          "type": "uint128"
        },
        {
          "internalType": "uint128",
          "name": "totalAmount",
          "type": "uint128"
        },
        {
          "internalType": "uint128",
          "name": "amountRedeemed",
          "type": "uint128"
        },
        {
          "internalType": "uint32",
          "name": "vestInterval",
          "type": "uint32"
        }
      ],
      "name": "mint",
      "outputs": [],
      "stateMutability": "nonpayable",
      "type": "function"
    },
    {
      "inputs": [],
      "name": "name",
      "outputs": [
        {
          "internalType": "string",
          "name": "",
          "type": "string"
        }
      ],
      "stateMutability": "view",
      "type": "function"
    },
    {
      "inputs": [
        {
          "internalType": "address",
          "name": "nominee",
          "type": "address"
        }
      ],
      "name": "nominateOwner",
      "outputs": [],
      "stateMutability": "nonpayable",
      "type": "function"
    },
    {
      "inputs": [],
      "name": "nominatedOwner",
      "outputs": [
        {
          "internalType": "address",
          "name": "",
          "type": "address"
        }
      ],
      "stateMutability": "view",
      "type": "function"
    },
    {
      "inputs": [],
      "name": "owner",
      "outputs": [
        {
          "internalType": "address",
          "name": "",
          "type": "address"
        }
      ],
      "stateMutability": "view",
      "type": "function"
    },
    {
      "inputs": [
        {
          "internalType": "uint256",
          "name": "tokenId",
          "type": "uint256"
        }
      ],
      "name": "ownerOf",
      "outputs": [
        {
          "internalType": "address",
          "name": "",
          "type": "address"
        }
      ],
      "stateMutability": "view",
      "type": "function"
    },
    {
      "inputs": [
        {
          "internalType": "uint256",
          "name": "tokenId",
          "type": "uint256"
        }
      ],
      "name": "redeem",
      "outputs": [],
      "stateMutability": "nonpayable",
      "type": "function"
    },
    {
      "inputs": [
        {
          "internalType": "uint256",
          "name": "tokenId",
          "type": "uint256"
        },
        {
          "internalType": "address",
          "name": "incomingTokenAddress",
          "type": "address"
        },
        {
          "internalType": "uint256",
          "name": "incomingTokenAmount",
          "type": "uint256"
        }
      ],
      "name": "redeemWithTransfer",
      "outputs": [],
      "stateMutability": "nonpayable",
      "type": "function"
    },
    {
      "inputs": [
        {
          "internalType": "address",
          "name": "from",
          "type": "address"
        },
        {
          "internalType": "address",
          "name": "to",
          "type": "address"
        },
        {
          "internalType": "uint256",
          "name": "tokenId",
          "type": "uint256"
        }
      ],
      "name": "safeTransferFrom",
      "outputs": [],
      "stateMutability": "nonpayable",
      "type": "function"
    },
    {
      "inputs": [
        {
          "internalType": "address",
          "name": "from",
          "type": "address"
        },
        {
          "internalType": "address",
          "name": "to",
          "type": "address"
        },
        {
          "internalType": "uint256",
          "name": "tokenId",
          "type": "uint256"
        },
        {
          "internalType": "bytes",
          "name": "_data",
          "type": "bytes"
        }
      ],
      "name": "safeTransferFrom",
      "outputs": [],
      "stateMutability": "nonpayable",
      "type": "function"
    },
    {
      "inputs": [
        {
          "internalType": "address",
          "name": "operator",
          "type": "address"
        },
        {
          "internalType": "bool",
          "name": "approved",
          "type": "bool"
        }
      ],
      "name": "setApprovalForAll",
      "outputs": [],
      "stateMutability": "nonpayable",
      "type": "function"
    },
    {
      "inputs": [
        {
          "internalType": "bytes4",
          "name": "interfaceId",
          "type": "bytes4"
        }
      ],
      "name": "supportsInterface",
      "outputs": [
        {
          "internalType": "bool",
          "name": "",
          "type": "bool"
        }
      ],
      "stateMutability": "view",
      "type": "function"
    },
    {
      "inputs": [],
      "name": "symbol",
      "outputs": [
        {
          "internalType": "string",
          "name": "",
          "type": "string"
        }
      ],
      "stateMutability": "view",
      "type": "function"
    },
    {
      "inputs": [
        {
          "internalType": "uint256",
          "name": "index",
          "type": "uint256"
        }
      ],
      "name": "tokenByIndex",
      "outputs": [
        {
          "internalType": "uint256",
          "name": "",
          "type": "uint256"
        }
      ],
      "stateMutability": "view",
      "type": "function"
    },
    {
      "inputs": [],
      "name": "tokenCounter",
      "outputs": [
        {
          "internalType": "uint256",
          "name": "",
          "type": "uint256"
        }
      ],
      "stateMutability": "view",
      "type": "function"
    },
    {
      "inputs": [
        {
          "internalType": "address",
          "name": "owner",
          "type": "address"
        },
        {
          "internalType": "uint256",
          "name": "index",
          "type": "uint256"
        }
      ],
      "name": "tokenOfOwnerByIndex",
      "outputs": [
        {
          "internalType": "uint256",
          "name": "",
          "type": "uint256"
        }
      ],
      "stateMutability": "view",
      "type": "function"
    },
    {
      "inputs": [
        {
          "internalType": "uint256",
          "name": "tokenId",
          "type": "uint256"
        }
      ],
      "name": "tokenURI",
      "outputs": [
        {
          "internalType": "string",
          "name": "",
          "type": "string"
        }
      ],
      "stateMutability": "view",
      "type": "function"
    },
    {
      "inputs": [],
      "name": "totalSupply",
      "outputs": [
        {
          "internalType": "uint256",
          "name": "",
          "type": "uint256"
        }
      ],
      "stateMutability": "view",
      "type": "function"
    },
    {
      "inputs": [
        {
          "internalType": "address",
          "name": "from",
          "type": "address"
        },
        {
          "internalType": "address",
          "name": "to",
          "type": "address"
        },
        {
          "internalType": "uint256",
          "name": "tokenId",
          "type": "uint256"
        }
      ],
      "name": "transferFrom",
      "outputs": [],
      "stateMutability": "nonpayable",
      "type": "function"
    },
    {
      "inputs": [
        {
          "internalType": "uint256",
          "name": "tokenId",
          "type": "uint256"
        },
        {
          "internalType": "address",
          "name": "tokenAddress",
          "type": "address"
        },
        {
          "internalType": "uint64",
          "name": "startTimestamp",
          "type": "uint64"
        },
        {
          "internalType": "uint64",
          "name": "cliffTimestamp",
          "type": "uint64"
        },
        {
          "internalType": "uint128",
          "name": "vestAmount",
          "type": "uint128"
        },
        {
          "internalType": "uint128",
          "name": "totalAmount",
          "type": "uint128"
        },
        {
          "internalType": "uint128",
          "name": "amountRedeemed",
          "type": "uint128"
        },
        {
          "internalType": "uint32",
          "name": "vestInterval",
          "type": "uint32"
        }
      ],
      "name": "updateGrant",
      "outputs": [],
      "stateMutability": "nonpayable",
      "type": "function"
    },
    {
      "inputs": [
        {
          "internalType": "address",
          "name": "withdrawalTokenAddress",
          "type": "address"
        },
        {
          "internalType": "uint256",
          "name": "withdrawalTokenAmount",
          "type": "uint256"
        }
      ],
      "name": "withdraw",
      "outputs": [],
      "stateMutability": "nonpayable",
      "type": "function"
    }
  ],
  "bytecode": "0x60806040523480156200001157600080fd5b5060405162005367380380620053678339818101604052810190620000379190620001f0565b8282816000908051906020019062000051929190620000b7565b5080600190805190602001906200006a929190620000b7565b50505080600a60006101000a81548173ffffffffffffffffffffffffffffffffffffffff021916908373ffffffffffffffffffffffffffffffffffffffff16021790555050505062000436565b828054620000c59062000341565b90600052602060002090601f016020900481019282620000e9576000855562000135565b82601f106200010457805160ff191683800117855562000135565b8280016001018555821562000135579182015b828111156200013457825182559160200191906001019062000117565b5b50905062000144919062000148565b5090565b5b808211156200016357600081600090555060010162000149565b5090565b60006200017e6200017884620002a1565b62000278565b9050828152602081018484840111156200019757600080fd5b620001a48482856200030b565b509392505050565b600081519050620001bd816200041c565b92915050565b600082601f830112620001d557600080fd5b8151620001e784826020860162000167565b91505092915050565b6000806000606084860312156200020657600080fd5b600084015167ffffffffffffffff8111156200022157600080fd5b6200022f86828701620001c3565b935050602084015167ffffffffffffffff8111156200024d57600080fd5b6200025b86828701620001c3565b92505060406200026e86828701620001ac565b9150509250925092565b60006200028462000297565b905062000292828262000377565b919050565b6000604051905090565b600067ffffffffffffffff821115620002bf57620002be620003dc565b5b620002ca826200040b565b9050602081019050919050565b6000620002e482620002eb565b9050919050565b600073ffffffffffffffffffffffffffffffffffffffff82169050919050565b60005b838110156200032b5780820151818401526020810190506200030e565b838111156200033b576000848401525b50505050565b600060028204905060018216806200035a57607f821691505b60208210811415620003715762000370620003ad565b5b50919050565b62000382826200040b565b810181811067ffffffffffffffff82111715620003a457620003a3620003dc565b5b80604052505050565b7f4e487b7100000000000000000000000000000000000000000000000000000000600052602260045260246000fd5b7f4e487b7100000000000000000000000000000000000000000000000000000000600052604160045260246000fd5b6000601f19601f8301169050919050565b6200042781620002d7565b81146200043357600080fd5b50565b614f2180620004466000396000f3fe608060405234801561001057600080fd5b50600436106101da5760003560e01c80636352211e11610104578063b88d4fde116100a2578063e229a09011610071578063e229a0901461057f578063e626840e1461059b578063e985e9c5146105b7578063f3fef3a3146105e7576101da565b8063b88d4fde146104f9578063c87b56dd14610515578063d082e38114610545578063db006a7514610563576101da565b80638da5cb5b116100de5780638da5cb5b1461047157806395d89b411461048f578063a22cb465146104ad578063b6699d0e146104c9576101da565b80636352211e1461040757806370a082311461043757806379ba509714610467576101da565b80632e2f7fd01161017c5780634f6ccce71161014b5780634f6ccce71461036d57806353a47bb71461039d5780635b94db27146103bb5780635e25ca8a146103d7576101da565b80632e2f7fd0146102e95780632f745c591461030557806342842e0e1461033557806342966c6814610351576101da565b8063095ea7b3116101b8578063095ea7b31461025d5780630c0debea1461027957806318160ddd146102af57806323b872dd146102cd576101da565b806301ffc9a7146101df57806306fdde031461020f578063081812fc1461022d575b600080fd5b6101f960048036038101906101f491906137b8565b610603565b6040516102069190613eb2565b60405180910390f35b61021761067d565b6040516102249190613ecd565b60405180910390f35b6102476004803603810190610242919061380a565b61070f565b6040516102549190613deb565b60405180910390f35b61027760048036038101906102729190613753565b610794565b005b610293600480360381019061028e919061380a565b6108ac565b6040516102a697969594939291906141ea565b60405180910390f35b6102b761099a565b6040516102c49190614259565b60405180910390f35b6102e760048036038101906102e2919061359b565b6109a7565b005b61030360048036038101906102fe91906138ab565b610a07565b005b61031f600480360381019061031a9190613753565b610ce5565b60405161032c9190614259565b60405180910390f35b61034f600480360381019061034a919061359b565b610d8a565b005b61036b6004803603810190610366919061380a565b610daa565b005b6103876004803603810190610382919061380a565b610f66565b6040516103949190614259565b60405180910390f35b6103a5610ffd565b6040516103b29190613deb565b60405180910390f35b6103d560048036038101906103d09190613536565b611023565b005b6103f160048036038101906103ec919061380a565b61113a565b6040516103fe91906141cf565b60405180910390f35b610421600480360381019061041c919061380a565b611189565b60405161042e9190613deb565b60405180910390f35b610451600480360381019061044c9190613536565b61123b565b60405161045e9190614259565b60405180910390f35b61046f6112f3565b005b610479611492565b6040516104869190613deb565b60405180910390f35b6104976114b8565b6040516104a49190613ecd565b60405180910390f35b6104c760048036038101906104c29190613717565b61154a565b005b6104e360048036038101906104de919061380a565b611560565b6040516104f091906141cf565b60405180910390f35b610513600480360381019061050e91906135ea565b6116af565b005b61052f600480360381019061052a919061380a565b611711565b60405161053c9190613ecd565b60405180910390f35b61054d6117b8565b60405161055a9190614259565b60405180910390f35b61057d6004803603810190610578919061380a565b6117be565b005b6105996004803603810190610594919061385c565b611ab6565b005b6105b560048036038101906105b09190613665565b611af7565b005b6105d160048036038101906105cc919061355f565b611c02565b6040516105de9190613eb2565b60405180910390f35b61060160048036038101906105fc9190613753565b611c96565b005b60007f780e9d63000000000000000000000000000000000000000000000000000000007bffffffffffffffffffffffffffffffffffffffffffffffffffffffff1916827bffffffffffffffffffffffffffffffffffffffffffffffffffffffff19161480610676575061067582611dc0565b5b9050919050565b60606000805461068c9061461f565b80601f01602080910402602001604051908101604052809291908181526020018280546106b89061461f565b80156107055780601f106106da57610100808354040283529160200191610705565b820191906000526020600020905b8154815290600101906020018083116106e857829003601f168201915b5050505050905090565b600061071a82611ea2565b610759576040517f08c379a0000000000000000000000000000000000000000000000000000000008152600401610750906140af565b60405180910390fd5b6004600083815260200190815260200160002060009054906101000a900473ffffffffffffffffffffffffffffffffffffffff169050919050565b600061079f82611189565b90508073ffffffffffffffffffffffffffffffffffffffff168373ffffffffffffffffffffffffffffffffffffffff161415610810576040517f08c379a00000000000000000000000000000000000000000000000000000000081526004016108079061412f565b60405180910390fd5b8073ffffffffffffffffffffffffffffffffffffffff1661082f611f0e565b73ffffffffffffffffffffffffffffffffffffffff16148061085e575061085d81610858611f0e565b611c02565b5b61089d576040517f08c379a000000000000000000000000000000000000000000000000000000000815260040161089490613fef565b60405180910390fd5b6108a78383611f16565b505050565b600d6020528060005260406000206000915090508060000160009054906101000a90046fffffffffffffffffffffffffffffffff16908060000160109054906101000a90046fffffffffffffffffffffffffffffffff16908060010160009054906101000a90046fffffffffffffffffffffffffffffffff16908060010160109054906101000a900467ffffffffffffffff16908060010160189054906101000a900467ffffffffffffffff16908060020160009054906101000a900463ffffffff16908060020160049054906101000a900473ffffffffffffffffffffffffffffffffffffffff16905087565b6000600880549050905090565b6109b86109b2611f0e565b82611fcf565b6109f7576040517f08c379a00000000000000000000000000000000000000000000000000000000081526004016109ee9061414f565b60405180910390fd5b610a028383836120ad565b505050565b600a60009054906101000a900473ffffffffffffffffffffffffffffffffffffffff1673ffffffffffffffffffffffffffffffffffffffff163373ffffffffffffffffffffffffffffffffffffffff1614610a97576040517f08c379a0000000000000000000000000000000000000000000000000000000008152600401610a8e90613eef565b60405180910390fd5b86600d60008a815260200190815260200160002060020160046101000a81548173ffffffffffffffffffffffffffffffffffffffff021916908373ffffffffffffffffffffffffffffffffffffffff16021790555085600d60008a815260200190815260200160002060010160106101000a81548167ffffffffffffffff021916908367ffffffffffffffff16021790555084600d60008a815260200190815260200160002060010160186101000a81548167ffffffffffffffff021916908367ffffffffffffffff16021790555083600d60008a815260200190815260200160002060000160006101000a8154816fffffffffffffffffffffffffffffffff02191690836fffffffffffffffffffffffffffffffff16021790555082600d60008a815260200190815260200160002060000160106101000a8154816fffffffffffffffffffffffffffffffff02191690836fffffffffffffffffffffffffffffffff16021790555081600d60008a815260200190815260200160002060010160006101000a8154816fffffffffffffffffffffffffffffffff02191690836fffffffffffffffffffffffffffffffff16021790555080600d60008a815260200190815260200160002060020160006101000a81548163ffffffff021916908363ffffffff1602179055508673ffffffffffffffffffffffffffffffffffffffff16887f0c9bb257ef84ec46d60e7ce032c5e9a87a502560da8860a5d643781808f299da888888888888604051610cd396959493929190614274565b60405180910390a35050505050505050565b6000610cf08361123b565b8210610d31576040517f08c379a0000000000000000000000000000000000000000000000000000000008152600401610d2890613f0f565b60405180910390fd5b600660008473ffffffffffffffffffffffffffffffffffffffff1673ffffffffffffffffffffffffffffffffffffffff168152602001908152602001600020600083815260200190815260200160002054905092915050565b610da5838383604051806020016040528060008152506116af565b505050565b600a60009054906101000a900473ffffffffffffffffffffffffffffffffffffffff1673ffffffffffffffffffffffffffffffffffffffff163373ffffffffffffffffffffffffffffffffffffffff1614610e3a576040517f08c379a0000000000000000000000000000000000000000000000000000000008152600401610e3190613eef565b60405180910390fd5b610e4381612309565b600d6000828152602001908152602001600020600080820160006101000a8154906fffffffffffffffffffffffffffffffff02191690556000820160106101000a8154906fffffffffffffffffffffffffffffffff02191690556001820160006101000a8154906fffffffffffffffffffffffffffffffff02191690556001820160106101000a81549067ffffffffffffffff02191690556001820160186101000a81549067ffffffffffffffff02191690556002820160006101000a81549063ffffffff02191690556002820160046101000a81549073ffffffffffffffffffffffffffffffffffffffff02191690555050807f8a2d8b920bb6129b6d7a43712be4e2d8df5604cc5a3371dac5588211758f39ed60405160405180910390a250565b6000610f7061099a565b8210610fb1576040517f08c379a0000000000000000000000000000000000000000000000000000000008152600401610fa89061418f565b60405180910390fd5b60088281548110610feb577f4e487b7100000000000000000000000000000000000000000000000000000000600052603260045260246000fd5b90600052602060002001549050919050565b600b60009054906101000a900473ffffffffffffffffffffffffffffffffffffffff1681565b600a60009054906101000a900473ffffffffffffffffffffffffffffffffffffffff1673ffffffffffffffffffffffffffffffffffffffff163373ffffffffffffffffffffffffffffffffffffffff16146110b3576040517f08c379a00000000000000000000000000000000000000000000000000000000081526004016110aa90613eef565b60405180910390fd5b80600b60006101000a81548173ffffffffffffffffffffffffffffffffffffffff021916908373ffffffffffffffffffffffffffffffffffffffff1602179055508073ffffffffffffffffffffffffffffffffffffffff167fa43af109f494a1b33d1d9f272a0a84f482e536f260818914271d36d0b47ba00e60405160405180910390a250565b6000600d600083815260200190815260200160002060010160009054906101000a90046fffffffffffffffffffffffffffffffff1661117883611560565b61118291906144c1565b9050919050565b6000806002600084815260200190815260200160002060009054906101000a900473ffffffffffffffffffffffffffffffffffffffff169050600073ffffffffffffffffffffffffffffffffffffffff168173ffffffffffffffffffffffffffffffffffffffff161415611232576040517f08c379a00000000000000000000000000000000000000000000000000000000081526004016112299061404f565b60405180910390fd5b80915050919050565b60008073ffffffffffffffffffffffffffffffffffffffff168273ffffffffffffffffffffffffffffffffffffffff1614156112ac576040517f08c379a00000000000000000000000000000000000000000000000000000000081526004016112a39061402f565b60405180910390fd5b600360008373ffffffffffffffffffffffffffffffffffffffff1673ffffffffffffffffffffffffffffffffffffffff168152602001908152602001600020549050919050565b600b60009054906101000a900473ffffffffffffffffffffffffffffffffffffffff1673ffffffffffffffffffffffffffffffffffffffff163373ffffffffffffffffffffffffffffffffffffffff161461134d57600080fd5b600b60009054906101000a900473ffffffffffffffffffffffffffffffffffffffff1673ffffffffffffffffffffffffffffffffffffffff16600a60009054906101000a900473ffffffffffffffffffffffffffffffffffffffff1673ffffffffffffffffffffffffffffffffffffffff167f343765429aea5a34b3ff6a3785a98a5abb2597aca87bfbb58632c173d585373a60405160405180910390a3600b60009054906101000a900473ffffffffffffffffffffffffffffffffffffffff16600a60006101000a81548173ffffffffffffffffffffffffffffffffffffffff021916908373ffffffffffffffffffffffffffffffffffffffff1602179055506000600b60006101000a81548173ffffffffffffffffffffffffffffffffffffffff021916908373ffffffffffffffffffffffffffffffffffffffff160217905550565b600a60009054906101000a900473ffffffffffffffffffffffffffffffffffffffff1681565b6060600180546114c79061461f565b80601f01602080910402602001604051908101604052809291908181526020018280546114f39061461f565b80156115405780601f1061151557610100808354040283529160200191611540565b820191906000526020600020905b81548152906001019060200180831161152357829003601f168201915b5050505050905090565b61155c611555611f0e565b838361241a565b5050565b600080600d600084815260200190815260200160002090508060010160189054906101000a900467ffffffffffffffff1667ffffffffffffffff164210156115ac5760009150506116aa565b60008160000160009054906101000a90046fffffffffffffffffffffffffffffffff168260020160009054906101000a900463ffffffff1663ffffffff168360010160109054906101000a900467ffffffffffffffff1667ffffffffffffffff164261161891906144c1565b6116229190614415565b61162c9190614477565b90508160000160109054906101000a90046fffffffffffffffffffffffffffffffff166fffffffffffffffffffffffffffffffff16816fffffffffffffffffffffffffffffffff1611156116a4578160000160109054906101000a90046fffffffffffffffffffffffffffffffff16925050506116aa565b80925050505b919050565b6116c06116ba611f0e565b83611fcf565b6116ff576040517f08c379a00000000000000000000000000000000000000000000000000000000081526004016116f69061414f565b60405180910390fd5b61170b84848484612587565b50505050565b606061171c82611ea2565b61175b576040517f08c379a0000000000000000000000000000000000000000000000000000000008152600401611752906140ef565b60405180910390fd5b60006117656125e3565b9050600081511161178557604051806020016040528060008152506117b0565b8061178f846125fa565b6040516020016117a0929190613dc7565b6040516020818303038152906040525b915050919050565b600c5481565b3373ffffffffffffffffffffffffffffffffffffffff166117de82611189565b73ffffffffffffffffffffffffffffffffffffffff1614611834576040517f08c379a000000000000000000000000000000000000000000000000000000000815260040161182b9061408f565b60405180910390fd5b600061183f8261113a565b90506000816fffffffffffffffffffffffffffffffff1611611896576040517f08c379a000000000000000000000000000000000000000000000000000000000815260040161188d9061410f565b60405180910390fd5b6000600d600084815260200190815260200160002060020160049054906101000a900473ffffffffffffffffffffffffffffffffffffffff169050816fffffffffffffffffffffffffffffffff168173ffffffffffffffffffffffffffffffffffffffff166370a08231306040518263ffffffff1660e01b815260040161191d9190613deb565b60206040518083038186803b15801561193557600080fd5b505afa158015611949573d6000803e3d6000fd5b505050506040513d601f19601f8201168201806040525081019061196d9190613833565b10156119ae576040517f08c379a00000000000000000000000000000000000000000000000000000000081526004016119a59061400f565b60405180910390fd5b81600d600085815260200190815260200160002060010160008282829054906101000a90046fffffffffffffffffffffffffffffffff166119ef9190614379565b92506101000a8154816fffffffffffffffffffffffffffffffff02191690836fffffffffffffffffffffffffffffffff160217905550611a6233836fffffffffffffffffffffffffffffffff168373ffffffffffffffffffffffffffffffffffffffff166127a79092919063ffffffff16565b3373ffffffffffffffffffffffffffffffffffffffff16837fdeedc3b2f529d2c0a63d08e4e0a3bbec8e617a02e0f03e9581f4f8c45e84892984604051611aa991906141cf565b60405180910390a3505050565b6000829050611ac4846117be565b611af13330848473ffffffffffffffffffffffffffffffffffffffff1661282d909392919063ffffffff16565b50505050565b600a60009054906101000a900473ffffffffffffffffffffffffffffffffffffffff1673ffffffffffffffffffffffffffffffffffffffff163373ffffffffffffffffffffffffffffffffffffffff1614611b87576040517f08c379a0000000000000000000000000000000000000000000000000000000008152600401611b7e90613eef565b60405180910390fd5b600c547f22a2abd07e87b230325c9a9ca7e31611cb7458a525a490f050e656ffb2410c2660405160405180910390a2611bc8600c5488888888888888610a07565b600c6000815480929190611bdb90614682565b9190505550611bf8886001600c54611bf391906144f5565b6128b6565b5050505050505050565b6000600560008473ffffffffffffffffffffffffffffffffffffffff1673ffffffffffffffffffffffffffffffffffffffff16815260200190815260200160002060008373ffffffffffffffffffffffffffffffffffffffff1673ffffffffffffffffffffffffffffffffffffffff16815260200190815260200160002060009054906101000a900460ff16905092915050565b600a60009054906101000a900473ffffffffffffffffffffffffffffffffffffffff1673ffffffffffffffffffffffffffffffffffffffff163373ffffffffffffffffffffffffffffffffffffffff1614611d26576040517f08c379a0000000000000000000000000000000000000000000000000000000008152600401611d1d90613eef565b60405180910390fd5b6000829050611d5633838373ffffffffffffffffffffffffffffffffffffffff166127a79092919063ffffffff16565b8273ffffffffffffffffffffffffffffffffffffffff163373ffffffffffffffffffffffffffffffffffffffff167f2717ead6b9200dd235aad468c9809ea400fe33ac69b5bfaa6d3e90fc922b639884604051611db39190614259565b60405180910390a3505050565b60007f80ac58cd000000000000000000000000000000000000000000000000000000007bffffffffffffffffffffffffffffffffffffffffffffffffffffffff1916827bffffffffffffffffffffffffffffffffffffffffffffffffffffffff19161480611e8b57507f5b5e139f000000000000000000000000000000000000000000000000000000007bffffffffffffffffffffffffffffffffffffffffffffffffffffffff1916827bffffffffffffffffffffffffffffffffffffffffffffffffffffffff1916145b80611e9b5750611e9a826128d4565b5b9050919050565b60008073ffffffffffffffffffffffffffffffffffffffff166002600084815260200190815260200160002060009054906101000a900473ffffffffffffffffffffffffffffffffffffffff1673ffffffffffffffffffffffffffffffffffffffff1614159050919050565b600033905090565b816004600083815260200190815260200160002060006101000a81548173ffffffffffffffffffffffffffffffffffffffff021916908373ffffffffffffffffffffffffffffffffffffffff160217905550808273ffffffffffffffffffffffffffffffffffffffff16611f8983611189565b73ffffffffffffffffffffffffffffffffffffffff167f8c5be1e5ebec7d5bd14f71427d1e84f3dd0314c0f7b2291e5b200ac8c7c3b92560405160405180910390a45050565b6000611fda82611ea2565b612019576040517f08c379a000000000000000000000000000000000000000000000000000000000815260040161201090613fcf565b60405180910390fd5b600061202483611189565b90508073ffffffffffffffffffffffffffffffffffffffff168473ffffffffffffffffffffffffffffffffffffffff16148061209357508373ffffffffffffffffffffffffffffffffffffffff1661207b8461070f565b73ffffffffffffffffffffffffffffffffffffffff16145b806120a457506120a38185611c02565b5b91505092915050565b8273ffffffffffffffffffffffffffffffffffffffff166120cd82611189565b73ffffffffffffffffffffffffffffffffffffffff1614612123576040517f08c379a000000000000000000000000000000000000000000000000000000000815260040161211a906140cf565b60405180910390fd5b600073ffffffffffffffffffffffffffffffffffffffff168273ffffffffffffffffffffffffffffffffffffffff161415612193576040517f08c379a000000000000000000000000000000000000000000000000000000000815260040161218a90613f6f565b60405180910390fd5b61219e83838361293e565b6121a9600082611f16565b6001600360008573ffffffffffffffffffffffffffffffffffffffff1673ffffffffffffffffffffffffffffffffffffffff16815260200190815260200160002060008282546121f991906144f5565b925050819055506001600360008473ffffffffffffffffffffffffffffffffffffffff1673ffffffffffffffffffffffffffffffffffffffff168152602001908152602001600020600082825461225091906143bf565b92505081905550816002600083815260200190815260200160002060006101000a81548173ffffffffffffffffffffffffffffffffffffffff021916908373ffffffffffffffffffffffffffffffffffffffff160217905550808273ffffffffffffffffffffffffffffffffffffffff168473ffffffffffffffffffffffffffffffffffffffff167fddf252ad1be2c89b69c2b068fc378daa952ba7f163c4a11628f55a4df523b3ef60405160405180910390a4505050565b600061231482611189565b90506123228160008461293e565b61232d600083611f16565b6001600360008373ffffffffffffffffffffffffffffffffffffffff1673ffffffffffffffffffffffffffffffffffffffff168152602001908152602001600020600082825461237d91906144f5565b925050819055506002600083815260200190815260200160002060006101000a81549073ffffffffffffffffffffffffffffffffffffffff021916905581600073ffffffffffffffffffffffffffffffffffffffff168273ffffffffffffffffffffffffffffffffffffffff167fddf252ad1be2c89b69c2b068fc378daa952ba7f163c4a11628f55a4df523b3ef60405160405180910390a45050565b8173ffffffffffffffffffffffffffffffffffffffff168373ffffffffffffffffffffffffffffffffffffffff161415612489576040517f08c379a000000000000000000000000000000000000000000000000000000000815260040161248090613f8f565b60405180910390fd5b80600560008573ffffffffffffffffffffffffffffffffffffffff1673ffffffffffffffffffffffffffffffffffffffff16815260200190815260200160002060008473ffffffffffffffffffffffffffffffffffffffff1673ffffffffffffffffffffffffffffffffffffffff16815260200190815260200160002060006101000a81548160ff0219169083151502179055508173ffffffffffffffffffffffffffffffffffffffff168373ffffffffffffffffffffffffffffffffffffffff167f17307eab39ab6107e8899845ad3d59bd9653f200f220920489ca2b5937696c318360405161257a9190613eb2565b60405180910390a3505050565b6125928484846120ad565b61259e84848484612a52565b6125dd576040517f08c379a00000000000000000000000000000000000000000000000000000000081526004016125d490613f2f565b60405180910390fd5b50505050565b606060405180602001604052806000815250905090565b60606000821415612642576040518060400160405280600181526020017f300000000000000000000000000000000000000000000000000000000000000081525090506127a2565b600082905060005b6000821461267457808061265d90614682565b915050600a8261266d9190614446565b915061264a565b60008167ffffffffffffffff8111156126b6577f4e487b7100000000000000000000000000000000000000000000000000000000600052604160045260246000fd5b6040519080825280601f01601f1916602001820160405280156126e85781602001600182028036833780820191505090505b5090505b6000851461279b5760018261270191906144f5565b9150600a8561271091906146cb565b603061271c91906143bf565b60f81b818381518110612758577f4e487b7100000000000000000000000000000000000000000000000000000000600052603260045260246000fd5b60200101907effffffffffffffffffffffffffffffffffffffffffffffffffffffffffffff1916908160001a905350600a856127949190614446565b94506126ec565b8093505050505b919050565b6128288363a9059cbb60e01b84846040516024016127c6929190613e89565b604051602081830303815290604052907bffffffffffffffffffffffffffffffffffffffffffffffffffffffff19166020820180517bffffffffffffffffffffffffffffffffffffffffffffffffffffffff8381831617835250505050612be9565b505050565b6128b0846323b872dd60e01b85858560405160240161284e93929190613e06565b604051602081830303815290604052907bffffffffffffffffffffffffffffffffffffffffffffffffffffffff19166020820180517bffffffffffffffffffffffffffffffffffffffffffffffffffffffff8381831617835250505050612be9565b50505050565b6128d0828260405180602001604052806000815250612cb0565b5050565b60007f01ffc9a7000000000000000000000000000000000000000000000000000000007bffffffffffffffffffffffffffffffffffffffffffffffffffffffff1916827bffffffffffffffffffffffffffffffffffffffffffffffffffffffff1916149050919050565b612949838383612d0b565b600073ffffffffffffffffffffffffffffffffffffffff168373ffffffffffffffffffffffffffffffffffffffff16141561298c5761298781612d10565b6129cb565b8173ffffffffffffffffffffffffffffffffffffffff168373ffffffffffffffffffffffffffffffffffffffff16146129ca576129c98382612d59565b5b5b600073ffffffffffffffffffffffffffffffffffffffff168273ffffffffffffffffffffffffffffffffffffffff161415612a0e57612a0981612ec6565b612a4d565b8273ffffffffffffffffffffffffffffffffffffffff168273ffffffffffffffffffffffffffffffffffffffff1614612a4c57612a4b8282613009565b5b5b505050565b6000612a738473ffffffffffffffffffffffffffffffffffffffff16613088565b15612bdc578373ffffffffffffffffffffffffffffffffffffffff1663150b7a02612a9c611f0e565b8786866040518563ffffffff1660e01b8152600401612abe9493929190613e3d565b602060405180830381600087803b158015612ad857600080fd5b505af1925050508015612b0957506040513d601f19601f82011682018060405250810190612b0691906137e1565b60015b612b8c573d8060008114612b39576040519150601f19603f3d011682016040523d82523d6000602084013e612b3e565b606091505b50600081511415612b84576040517f08c379a0000000000000000000000000000000000000000000000000000000008152600401612b7b90613f2f565b60405180910390fd5b805181602001fd5b63150b7a0260e01b7bffffffffffffffffffffffffffffffffffffffffffffffffffffffff1916817bffffffffffffffffffffffffffffffffffffffffffffffffffffffff191614915050612be1565b600190505b949350505050565b6000612c4b826040518060400160405280602081526020017f5361666545524332303a206c6f772d6c6576656c2063616c6c206661696c65648152508573ffffffffffffffffffffffffffffffffffffffff1661309b9092919063ffffffff16565b9050600081511115612cab5780806020019051810190612c6b919061378f565b612caa576040517f08c379a0000000000000000000000000000000000000000000000000000000008152600401612ca1906141af565b60405180910390fd5b5b505050565b612cba83836130b3565b612cc76000848484612a52565b612d06576040517f08c379a0000000000000000000000000000000000000000000000000000000008152600401612cfd90613f2f565b60405180910390fd5b505050565b505050565b6008805490506009600083815260200190815260200160002081905550600881908060018154018082558091505060019003906000526020600020016000909190919091505550565b60006001612d668461123b565b612d7091906144f5565b9050600060076000848152602001908152602001600020549050818114612e55576000600660008673ffffffffffffffffffffffffffffffffffffffff1673ffffffffffffffffffffffffffffffffffffffff168152602001908152602001600020600084815260200190815260200160002054905080600660008773ffffffffffffffffffffffffffffffffffffffff1673ffffffffffffffffffffffffffffffffffffffff168152602001908152602001600020600084815260200190815260200160002081905550816007600083815260200190815260200160002081905550505b6007600084815260200190815260200160002060009055600660008573ffffffffffffffffffffffffffffffffffffffff1673ffffffffffffffffffffffffffffffffffffffff16815260200190815260200160002060008381526020019081526020016000206000905550505050565b60006001600880549050612eda91906144f5565b9050600060096000848152602001908152602001600020549050600060088381548110612f30577f4e487b7100000000000000000000000000000000000000000000000000000000600052603260045260246000fd5b906000526020600020015490508060088381548110612f78577f4e487b7100000000000000000000000000000000000000000000000000000000600052603260045260246000fd5b906000526020600020018190555081600960008381526020019081526020016000208190555060096000858152602001908152602001600020600090556008805480612fed577f4e487b7100000000000000000000000000000000000000000000000000000000600052603160045260246000fd5b6001900381819060005260206000200160009055905550505050565b60006130148361123b565b905081600660008573ffffffffffffffffffffffffffffffffffffffff1673ffffffffffffffffffffffffffffffffffffffff168152602001908152602001600020600083815260200190815260200160002081905550806007600084815260200190815260200160002081905550505050565b600080823b905060008111915050919050565b60606130aa8484600085613281565b90509392505050565b600073ffffffffffffffffffffffffffffffffffffffff168273ffffffffffffffffffffffffffffffffffffffff161415613123576040517f08c379a000000000000000000000000000000000000000000000000000000000815260040161311a9061406f565b60405180910390fd5b61312c81611ea2565b1561316c576040517f08c379a000000000000000000000000000000000000000000000000000000000815260040161316390613f4f565b60405180910390fd5b6131786000838361293e565b6001600360008473ffffffffffffffffffffffffffffffffffffffff1673ffffffffffffffffffffffffffffffffffffffff16815260200190815260200160002060008282546131c891906143bf565b92505081905550816002600083815260200190815260200160002060006101000a81548173ffffffffffffffffffffffffffffffffffffffff021916908373ffffffffffffffffffffffffffffffffffffffff160217905550808273ffffffffffffffffffffffffffffffffffffffff16600073ffffffffffffffffffffffffffffffffffffffff167fddf252ad1be2c89b69c2b068fc378daa952ba7f163c4a11628f55a4df523b3ef60405160405180910390a45050565b6060824710156132c6576040517f08c379a00000000000000000000000000000000000000000000000000000000081526004016132bd90613faf565b60405180910390fd5b6132cf85613088565b61330e576040517f08c379a00000000000000000000000000000000000000000000000000000000081526004016133059061416f565b60405180910390fd5b6000808673ffffffffffffffffffffffffffffffffffffffff1685876040516133379190613db0565b60006040518083038185875af1925050503d8060008114613374576040519150601f19603f3d011682016040523d82523d6000602084013e613379565b606091505b5091509150613389828286613395565b92505050949350505050565b606083156133a5578290506133f5565b6000835111156133b85782518084602001fd5b816040517f08c379a00000000000000000000000000000000000000000000000000000000081526004016133ec9190613ecd565b60405180910390fd5b9392505050565b600061340f61340a846142fa565b6142d5565b90508281526020810184848401111561342757600080fd5b6134328482856145dd565b509392505050565b60008135905061344981614e4a565b92915050565b60008135905061345e81614e61565b92915050565b60008151905061347381614e61565b92915050565b60008135905061348881614e78565b92915050565b60008151905061349d81614e78565b92915050565b600082601f8301126134b457600080fd5b81356134c48482602086016133fc565b91505092915050565b6000813590506134dc81614e8f565b92915050565b6000813590506134f181614ea6565b92915050565b60008151905061350681614ea6565b92915050565b60008135905061351b81614ebd565b92915050565b60008135905061353081614ed4565b92915050565b60006020828403121561354857600080fd5b60006135568482850161343a565b91505092915050565b6000806040838503121561357257600080fd5b60006135808582860161343a565b92505060206135918582860161343a565b9150509250929050565b6000806000606084860312156135b057600080fd5b60006135be8682870161343a565b93505060206135cf8682870161343a565b92505060406135e0868287016134e2565b9150509250925092565b6000806000806080858703121561360057600080fd5b600061360e8782880161343a565b945050602061361f8782880161343a565b9350506040613630878288016134e2565b925050606085013567ffffffffffffffff81111561364d57600080fd5b613659878288016134a3565b91505092959194509250565b600080600080600080600080610100898b03121561368257600080fd5b60006136908b828c0161343a565b98505060206136a18b828c0161343a565b97505060406136b28b828c01613521565b96505060606136c38b828c01613521565b95505060806136d48b828c016134cd565b94505060a06136e58b828c016134cd565b93505060c06136f68b828c016134cd565b92505060e06137078b828c0161350c565b9150509295985092959890939650565b6000806040838503121561372a57600080fd5b60006137388582860161343a565b92505060206137498582860161344f565b9150509250929050565b6000806040838503121561376657600080fd5b60006137748582860161343a565b9250506020613785858286016134e2565b9150509250929050565b6000602082840312156137a157600080fd5b60006137af84828501613464565b91505092915050565b6000602082840312156137ca57600080fd5b60006137d884828501613479565b91505092915050565b6000602082840312156137f357600080fd5b60006138018482850161348e565b91505092915050565b60006020828403121561381c57600080fd5b600061382a848285016134e2565b91505092915050565b60006020828403121561384557600080fd5b6000613853848285016134f7565b91505092915050565b60008060006060848603121561387157600080fd5b600061387f868287016134e2565b93505060206138908682870161343a565b92505060406138a1868287016134e2565b9150509250925092565b600080600080600080600080610100898b0312156138c857600080fd5b60006138d68b828c016134e2565b98505060206138e78b828c0161343a565b97505060406138f88b828c01613521565b96505060606139098b828c01613521565b955050608061391a8b828c016134cd565b94505060a061392b8b828c016134cd565b93505060c061393c8b828c016134cd565b92505060e061394d8b828c0161350c565b9150509295985092959890939650565b61396681614529565b82525050565b6139758161453b565b82525050565b60006139868261432b565b6139908185614341565b93506139a08185602086016145ec565b6139a9816147b8565b840191505092915050565b60006139bf8261432b565b6139c98185614352565b93506139d98185602086016145ec565b80840191505092915050565b60006139f082614336565b6139fa818561435d565b9350613a0a8185602086016145ec565b613a13816147b8565b840191505092915050565b6000613a2982614336565b613a33818561436e565b9350613a438185602086016145ec565b80840191505092915050565b6000613a5c60268361435d565b9150613a67826147c9565b604082019050919050565b6000613a7f602b8361435d565b9150613a8a82614818565b604082019050919050565b6000613aa260328361435d565b9150613aad82614867565b604082019050919050565b6000613ac5601c8361435d565b9150613ad0826148b6565b602082019050919050565b6000613ae860248361435d565b9150613af3826148df565b604082019050919050565b6000613b0b60198361435d565b9150613b168261492e565b602082019050919050565b6000613b2e60268361435d565b9150613b3982614957565b604082019050919050565b6000613b51602c8361435d565b9150613b5c826149a6565b604082019050919050565b6000613b7460388361435d565b9150613b7f826149f5565b604082019050919050565b6000613b9760478361435d565b9150613ba282614a44565b606082019050919050565b6000613bba602a8361435d565b9150613bc582614ab9565b604082019050919050565b6000613bdd60298361435d565b9150613be882614b08565b604082019050919050565b6000613c0060208361435d565b9150613c0b82614b57565b602082019050919050565b6000613c2360198361435d565b9150613c2e82614b80565b602082019050919050565b6000613c46602c8361435d565b9150613c5182614ba9565b604082019050919050565b6000613c6960298361435d565b9150613c7482614bf8565b604082019050919050565b6000613c8c602f8361435d565b9150613c9782614c47565b604082019050919050565b6000613caf603d8361435d565b9150613cba82614c96565b604082019050919050565b6000613cd260218361435d565b9150613cdd82614ce5565b604082019050919050565b6000613cf560318361435d565b9150613d0082614d34565b604082019050919050565b6000613d18601d8361435d565b9150613d2382614d83565b602082019050919050565b6000613d3b602c8361435d565b9150613d4682614dac565b604082019050919050565b6000613d5e602a8361435d565b9150613d6982614dfb565b604082019050919050565b613d7d81614573565b82525050565b613d8c816145af565b82525050565b613d9b816145b9565b82525050565b613daa816145c9565b82525050565b6000613dbc82846139b4565b915081905092915050565b6000613dd38285613a1e565b9150613ddf8284613a1e565b91508190509392505050565b6000602082019050613e00600083018461395d565b92915050565b6000606082019050613e1b600083018661395d565b613e28602083018561395d565b613e356040830184613d83565b949350505050565b6000608082019050613e52600083018761395d565b613e5f602083018661395d565b613e6c6040830185613d83565b8181036060830152613e7e818461397b565b905095945050505050565b6000604082019050613e9e600083018561395d565b613eab6020830184613d83565b9392505050565b6000602082019050613ec7600083018461396c565b92915050565b60006020820190508181036000830152613ee781846139e5565b905092915050565b60006020820190508181036000830152613f0881613a4f565b9050919050565b60006020820190508181036000830152613f2881613a72565b9050919050565b60006020820190508181036000830152613f4881613a95565b9050919050565b60006020820190508181036000830152613f6881613ab8565b9050919050565b60006020820190508181036000830152613f8881613adb565b9050919050565b60006020820190508181036000830152613fa881613afe565b9050919050565b60006020820190508181036000830152613fc881613b21565b9050919050565b60006020820190508181036000830152613fe881613b44565b9050919050565b6000602082019050818103600083015261400881613b67565b9050919050565b6000602082019050818103600083015261402881613b8a565b9050919050565b6000602082019050818103600083015261404881613bad565b9050919050565b6000602082019050818103600083015261406881613bd0565b9050919050565b6000602082019050818103600083015261408881613bf3565b9050919050565b600060208201905081810360008301526140a881613c16565b9050919050565b600060208201905081810360008301526140c881613c39565b9050919050565b600060208201905081810360008301526140e881613c5c565b9050919050565b6000602082019050818103600083015261410881613c7f565b9050919050565b6000602082019050818103600083015261412881613ca2565b9050919050565b6000602082019050818103600083015261414881613cc5565b9050919050565b6000602082019050818103600083015261416881613ce8565b9050919050565b6000602082019050818103600083015261418881613d0b565b9050919050565b600060208201905081810360008301526141a881613d2e565b9050919050565b600060208201905081810360008301526141c881613d51565b9050919050565b60006020820190506141e46000830184613d74565b92915050565b600060e0820190506141ff600083018a613d74565b61420c6020830189613d74565b6142196040830188613d74565b6142266060830187613da1565b6142336080830186613da1565b61424060a0830185613d92565b61424d60c083018461395d565b98975050505050505050565b600060208201905061426e6000830184613d83565b92915050565b600060c0820190506142896000830189613da1565b6142966020830188613da1565b6142a36040830187613d74565b6142b06060830186613d74565b6142bd6080830185613d74565b6142ca60a0830184613d92565b979650505050505050565b60006142df6142f0565b90506142eb8282614651565b919050565b6000604051905090565b600067ffffffffffffffff82111561431557614314614789565b5b61431e826147b8565b9050602081019050919050565b600081519050919050565b600081519050919050565b600082825260208201905092915050565b600081905092915050565b600082825260208201905092915050565b600081905092915050565b600061438482614573565b915061438f83614573565b9250826fffffffffffffffffffffffffffffffff038211156143b4576143b36146fc565b5b828201905092915050565b60006143ca826145af565b91506143d5836145af565b9250827fffffffffffffffffffffffffffffffffffffffffffffffffffffffffffffffff0382111561440a576144096146fc565b5b828201905092915050565b600061442082614573565b915061442b83614573565b92508261443b5761443a61472b565b5b828204905092915050565b6000614451826145af565b915061445c836145af565b92508261446c5761446b61472b565b5b828204905092915050565b600061448282614573565b915061448d83614573565b9250816fffffffffffffffffffffffffffffffff04831182151516156144b6576144b56146fc565b5b828202905092915050565b60006144cc82614573565b91506144d783614573565b9250828210156144ea576144e96146fc565b5b828203905092915050565b6000614500826145af565b915061450b836145af565b92508282101561451e5761451d6146fc565b5b828203905092915050565b60006145348261458f565b9050919050565b60008115159050919050565b60007fffffffff0000000000000000000000000000000000000000000000000000000082169050919050565b60006fffffffffffffffffffffffffffffffff82169050919050565b600073ffffffffffffffffffffffffffffffffffffffff82169050919050565b6000819050919050565b600063ffffffff82169050919050565b600067ffffffffffffffff82169050919050565b82818337600083830152505050565b60005b8381101561460a5780820151818401526020810190506145ef565b83811115614619576000848401525b50505050565b6000600282049050600182168061463757607f821691505b6020821081141561464b5761464a61475a565b5b50919050565b61465a826147b8565b810181811067ffffffffffffffff8211171561467957614678614789565b5b80604052505050565b600061468d826145af565b91507fffffffffffffffffffffffffffffffffffffffffffffffffffffffffffffffff8214156146c0576146bf6146fc565b5b600182019050919050565b60006146d6826145af565b91506146e1836145af565b9250826146f1576146f061472b565b5b828206905092915050565b7f4e487b7100000000000000000000000000000000000000000000000000000000600052601160045260246000fd5b7f4e487b7100000000000000000000000000000000000000000000000000000000600052601260045260246000fd5b7f4e487b7100000000000000000000000000000000000000000000000000000000600052602260045260246000fd5b7f4e487b7100000000000000000000000000000000000000000000000000000000600052604160045260246000fd5b6000601f19601f8301169050919050565b7f4f6e6c7920746865206f776e65722063616e2063616c6c20746869732066756e60008201527f6374696f6e2e0000000000000000000000000000000000000000000000000000602082015250565b7f455243373231456e756d657261626c653a206f776e657220696e646578206f7560008201527f74206f6620626f756e6473000000000000000000000000000000000000000000602082015250565b7f4552433732313a207472616e7366657220746f206e6f6e20455243373231526560008201527f63656976657220696d706c656d656e7465720000000000000000000000000000602082015250565b7f4552433732313a20746f6b656e20616c7265616479206d696e74656400000000600082015250565b7f4552433732313a207472616e7366657220746f20746865207a65726f2061646460008201527f7265737300000000000000000000000000000000000000000000000000000000602082015250565b7f4552433732313a20617070726f766520746f2063616c6c657200000000000000600082015250565b7f416464726573733a20696e73756666696369656e742062616c616e636520666f60008201527f722063616c6c0000000000000000000000000000000000000000000000000000602082015250565b7f4552433732313a206f70657261746f7220717565727920666f72206e6f6e657860008201527f697374656e7420746f6b656e0000000000000000000000000000000000000000602082015250565b7f4552433732313a20617070726f76652063616c6c6572206973206e6f74206f7760008201527f6e6572206e6f7220617070726f76656420666f7220616c6c0000000000000000602082015250565b7f4d6f726520746f6b656e73206d757374206265207472616e736665727265642060008201527f746f207468697320636f6e7472616374206265666f726520796f752063616e2060208201527f72656465656d2e00000000000000000000000000000000000000000000000000604082015250565b7f4552433732313a2062616c616e636520717565727920666f7220746865207a6560008201527f726f206164647265737300000000000000000000000000000000000000000000602082015250565b7f4552433732313a206f776e657220717565727920666f72206e6f6e657869737460008201527f656e7420746f6b656e0000000000000000000000000000000000000000000000602082015250565b7f4552433732313a206d696e7420746f20746865207a65726f2061646472657373600082015250565b7f596f7520646f6e2774206f776e2074686973206772616e742e00000000000000600082015250565b7f4552433732313a20617070726f76656420717565727920666f72206e6f6e657860008201527f697374656e7420746f6b656e0000000000000000000000000000000000000000602082015250565b7f4552433732313a207472616e73666572206f6620746f6b656e2074686174206960008201527f73206e6f74206f776e0000000000000000000000000000000000000000000000602082015250565b7f4552433732314d657461646174613a2055524920717565727920666f72206e6f60008201527f6e6578697374656e7420746f6b656e0000000000000000000000000000000000602082015250565b7f596f7520646f6e2774206861766520616e7920746f6b656e732063757272656e60008201527f746c7920617661696c61626c6520666f7220726564656d7074696f6e2e000000602082015250565b7f4552433732313a20617070726f76616c20746f2063757272656e74206f776e6560008201527f7200000000000000000000000000000000000000000000000000000000000000602082015250565b7f4552433732313a207472616e736665722063616c6c6572206973206e6f74206f60008201527f776e6572206e6f7220617070726f766564000000000000000000000000000000602082015250565b7f416464726573733a2063616c6c20746f206e6f6e2d636f6e7472616374000000600082015250565b7f455243373231456e756d657261626c653a20676c6f62616c20696e646578206f60008201527f7574206f6620626f756e64730000000000000000000000000000000000000000602082015250565b7f5361666545524332303a204552433230206f7065726174696f6e20646964206e60008201527f6f74207375636365656400000000000000000000000000000000000000000000602082015250565b614e5381614529565b8114614e5e57600080fd5b50565b614e6a8161453b565b8114614e7557600080fd5b50565b614e8181614547565b8114614e8c57600080fd5b50565b614e9881614573565b8114614ea357600080fd5b50565b614eaf816145af565b8114614eba57600080fd5b50565b614ec6816145b9565b8114614ed157600080fd5b50565b614edd816145c9565b8114614ee857600080fd5b5056fea2646970667358221220314a3fb53c181752fe5f95cb7a78b26d56858ef9f98527211832fc2e533e070964736f6c63430008040033",
  "linkReferences": {},
  "deployedLinkReferences": {}
}